{
  "_format": "hh-sol-artifact-1",
  "contractName": "Rental",
  "sourceName": "contracts/Rental.sol",
  "abi": [
    {
      "inputs": [],
      "stateMutability": "nonpayable",
      "type": "constructor"
    },
    {
      "inputs": [
        {
          "internalType": "address payable",
          "name": "walletAddress",
          "type": "address"
        },
        {
          "internalType": "string",
          "name": "firstName",
          "type": "string"
        },
        {
          "internalType": "string",
          "name": "lastName",
          "type": "string"
        },
        {
          "internalType": "bool",
          "name": "canRent",
          "type": "bool"
        },
        {
          "internalType": "bool",
          "name": "active",
          "type": "bool"
        },
        {
          "internalType": "uint256",
          "name": "balance",
          "type": "uint256"
        },
        {
          "internalType": "uint256",
          "name": "amountDue",
          "type": "uint256"
        },
        {
          "internalType": "uint256",
          "name": "start",
          "type": "uint256"
        },
        {
          "internalType": "uint256",
          "name": "end",
          "type": "uint256"
        }
      ],
      "name": "addRenter",
      "outputs": [],
      "stateMutability": "nonpayable",
      "type": "function"
    },
    {
      "inputs": [],
      "name": "balanceOf",
      "outputs": [
        {
          "internalType": "uint256",
          "name": "",
          "type": "uint256"
        }
      ],
      "stateMutability": "view",
      "type": "function"
    },
    {
      "inputs": [
        {
          "internalType": "address payable",
          "name": "walletAddress",
          "type": "address"
        }
      ],
      "name": "balanceOfRenter",
      "outputs": [
        {
          "internalType": "uint256",
          "name": "",
          "type": "uint256"
        }
      ],
      "stateMutability": "view",
      "type": "function"
    },
    {
      "inputs": [
        {
          "internalType": "address payable",
          "name": "walletAddress",
          "type": "address"
        }
      ],
      "name": "canRentCar",
      "outputs": [
        {
          "internalType": "bool",
          "name": "",
          "type": "bool"
        }
      ],
      "stateMutability": "view",
      "type": "function"
    },
    {
      "inputs": [
        {
          "internalType": "address payable",
          "name": "walletAddress",
          "type": "address"
        }
      ],
      "name": "checkIn",
      "outputs": [],
      "stateMutability": "nonpayable",
      "type": "function"
    },
    {
      "inputs": [
        {
          "internalType": "address payable",
          "name": "walletAddress",
          "type": "address"
        }
      ],
      "name": "checkOut",
      "outputs": [],
      "stateMutability": "nonpayable",
      "type": "function"
    },
    {
      "inputs": [
        {
          "internalType": "address",
          "name": "walletAddress",
          "type": "address"
        }
      ],
      "name": "deposit",
      "outputs": [],
      "stateMutability": "payable",
      "type": "function"
    },
    {
      "inputs": [
        {
          "internalType": "address payable",
          "name": "walletAddress",
          "type": "address"
        }
      ],
      "name": "getTotalDuration",
      "outputs": [
        {
          "internalType": "uint256",
          "name": "",
          "type": "uint256"
        }
      ],
      "stateMutability": "view",
      "type": "function"
    },
    {
      "inputs": [
        {
          "internalType": "address",
          "name": "walletAddress",
          "type": "address"
        }
      ],
      "name": "makePayment",
      "outputs": [],
      "stateMutability": "payable",
      "type": "function"
    },
    {
      "inputs": [
        {
          "internalType": "address",
          "name": "",
          "type": "address"
        }
      ],
      "name": "renters",
      "outputs": [
        {
          "internalType": "address payable",
          "name": "walletAddress",
          "type": "address"
        },
        {
          "internalType": "string",
          "name": "firstName",
          "type": "string"
        },
        {
          "internalType": "string",
          "name": "lastName",
          "type": "string"
        },
        {
          "internalType": "bool",
          "name": "canRent",
          "type": "bool"
        },
        {
          "internalType": "bool",
          "name": "active",
          "type": "bool"
        },
        {
          "internalType": "uint256",
          "name": "balance",
          "type": "uint256"
        },
        {
          "internalType": "uint256",
          "name": "amountDue",
          "type": "uint256"
        },
        {
          "internalType": "uint256",
          "name": "start",
          "type": "uint256"
        },
        {
          "internalType": "uint256",
          "name": "end",
          "type": "uint256"
        }
      ],
      "stateMutability": "view",
      "type": "function"
    }
  ],
  "bytecode": "0x6080604052348015600f57600080fd5b50336000806101000a81548173ffffffffffffffffffffffffffffffffffffffff021916908373ffffffffffffffffffffffffffffffffffffffff160217905550611b658061005f6000396000f3fe6080604052600436106100915760003560e01c80638d23caa0116100595780638d23caa014610188578063aad1b617146101b1578063af6143d3146101ee578063d9a59e331461022b578063f340fa011461025457610091565b8063300be4fc1461009657806341ba6e89146100b25780635e649727146100ef578063644a137014610118578063722713f71461015d575b600080fd5b6100b060048036038101906100ab9190610f2d565b610270565b005b3480156100be57600080fd5b506100d960048036038101906100d49190610f98565b610563565b6040516100e69190610fde565b60405180910390f35b3480156100fb57600080fd5b50610116600480360381019061011191906111a3565b6106a7565b005b34801561012457600080fd5b5061013f600480360381019061013a9190610f2d565b61082a565b60405161015499989796959493929190611342565b60405180910390f35b34801561016957600080fd5b506101726109c2565b60405161017f9190610fde565b60405180910390f35b34801561019457600080fd5b506101af60048036038101906101aa9190610f98565b6109ca565b005b3480156101bd57600080fd5b506101d860048036038101906101d39190610f98565b610be4565b6040516101e59190610fde565b60405180910390f35b3480156101fa57600080fd5b5061021560048036038101906102109190610f98565b610c30565b60405161022291906113dd565b60405180910390f35b34801561023757600080fd5b50610252600480360381019061024d9190610f98565b610c89565b005b61026e60048036038101906102699190610f2d565b610dcd565b005b6000600160008373ffffffffffffffffffffffffffffffffffffffff1673ffffffffffffffffffffffffffffffffffffffff16815260200190815260200160002060050154116102f5576040517f08c379a00000000000000000000000000000000000000000000000000000000081526004016102ec9061146a565b60405180910390fd5b6000600160008373ffffffffffffffffffffffffffffffffffffffff1673ffffffffffffffffffffffffffffffffffffffff168152602001908152602001600020600401541161037a576040517f08c379a000000000000000000000000000000000000000000000000000000000815260040161037190611522565b60405180910390fd5b34600160008373ffffffffffffffffffffffffffffffffffffffff1673ffffffffffffffffffffffffffffffffffffffff16815260200190815260200160002060040160008282546103cc9190611571565b9250508190555060018060008373ffffffffffffffffffffffffffffffffffffffff1673ffffffffffffffffffffffffffffffffffffffff16815260200190815260200160002060030160006101000a81548160ff0219169083151502179055506000600160008373ffffffffffffffffffffffffffffffffffffffff1673ffffffffffffffffffffffffffffffffffffffff16815260200190815260200160002060030160016101000a81548160ff0219169083151502179055506000600160008373ffffffffffffffffffffffffffffffffffffffff1673ffffffffffffffffffffffffffffffffffffffff168152602001908152602001600020600501819055506000600160008373ffffffffffffffffffffffffffffffffffffffff1673ffffffffffffffffffffffffffffffffffffffff168152602001908152602001600020600601819055506000600160008373ffffffffffffffffffffffffffffffffffffffff1673ffffffffffffffffffffffffffffffffffffffff1681526020019081526020016000206007018190555050565b6000801515600160008473ffffffffffffffffffffffffffffffffffffffff1673ffffffffffffffffffffffffffffffffffffffff16815260200190815260200160002060030160019054906101000a900460ff161515146105fa576040517f08c379a00000000000000000000000000000000000000000000000000000000081526004016105f190611617565b60405180910390fd5b600061068a600160008573ffffffffffffffffffffffffffffffffffffffff1673ffffffffffffffffffffffffffffffffffffffff16815260200190815260200160002060060154600160008673ffffffffffffffffffffffffffffffffffffffff1673ffffffffffffffffffffffffffffffffffffffff16815260200190815260200160002060070154610e29565b90506000603c8261069b9190611666565b90508092505050919050565b6040518061012001604052808a73ffffffffffffffffffffffffffffffffffffffff1681526020018981526020018881526020018715158152602001861515815260200185815260200184815260200183815260200182815250600160008b73ffffffffffffffffffffffffffffffffffffffff1673ffffffffffffffffffffffffffffffffffffffff16815260200190815260200160002060008201518160000160006101000a81548173ffffffffffffffffffffffffffffffffffffffff021916908373ffffffffffffffffffffffffffffffffffffffff160217905550602082015181600101908161079c91906118a3565b5060408201518160020190816107b291906118a3565b5060608201518160030160006101000a81548160ff02191690831515021790555060808201518160030160016101000a81548160ff02191690831515021790555060a0820151816004015560c0820151816005015560e082015181600601556101008201518160070155905050505050505050505050565b60016020528060005260406000206000915090508060000160009054906101000a900473ffffffffffffffffffffffffffffffffffffffff1690806001018054610873906116c6565b80601f016020809104026020016040519081016040528092919081815260200182805461089f906116c6565b80156108ec5780601f106108c1576101008083540402835291602001916108ec565b820191906000526020600020905b8154815290600101906020018083116108cf57829003601f168201915b505050505090806002018054610901906116c6565b80601f016020809104026020016040519081016040528092919081815260200182805461092d906116c6565b801561097a5780601f1061094f5761010080835404028352916020019161097a565b820191906000526020600020905b81548152906001019060200180831161095d57829003601f168201915b5050505050908060030160009054906101000a900460ff16908060030160019054906101000a900460ff16908060040154908060050154908060060154908060070154905089565b600047905090565b6000600160008373ffffffffffffffffffffffffffffffffffffffff1673ffffffffffffffffffffffffffffffffffffffff1681526020019081526020016000206005015414610a4f576040517f08c379a0000000000000000000000000000000000000000000000000000000008152600401610a46906119c1565b60405180910390fd5b60011515600160008373ffffffffffffffffffffffffffffffffffffffff1673ffffffffffffffffffffffffffffffffffffffff16815260200190815260200160002060030160009054906101000a900460ff16151514610ae5576040517f08c379a0000000000000000000000000000000000000000000000000000000008152600401610adc90611a2d565b60405180910390fd5b6000600160008373ffffffffffffffffffffffffffffffffffffffff1673ffffffffffffffffffffffffffffffffffffffff16815260200190815260200160002060030160006101000a81548160ff02191690831515021790555060018060008373ffffffffffffffffffffffffffffffffffffffff1673ffffffffffffffffffffffffffffffffffffffff16815260200190815260200160002060030160016101000a81548160ff02191690831515021790555042600160008373ffffffffffffffffffffffffffffffffffffffff1673ffffffffffffffffffffffffffffffffffffffff1681526020019081526020016000206006018190555050565b6000600160008373ffffffffffffffffffffffffffffffffffffffff1673ffffffffffffffffffffffffffffffffffffffff168152602001908152602001600020600401549050919050565b6000600160008373ffffffffffffffffffffffffffffffffffffffff1673ffffffffffffffffffffffffffffffffffffffff16815260200190815260200160002060030160009054906101000a900460ff169050919050565b60011515600160008373ffffffffffffffffffffffffffffffffffffffff1673ffffffffffffffffffffffffffffffffffffffff16815260200190815260200160002060030160019054906101000a900460ff16151514610d1f576040517f08c379a0000000000000000000000000000000000000000000000000000000008152600401610d1690611a99565b60405180910390fd5b6000600160008373ffffffffffffffffffffffffffffffffffffffff1673ffffffffffffffffffffffffffffffffffffffff16815260200190815260200160002060030160016101000a81548160ff02191690831515021790555042600160008373ffffffffffffffffffffffffffffffffffffffff1673ffffffffffffffffffffffffffffffffffffffff16815260200190815260200160002060070181905550610dca81610e3f565b50565b34600160008373ffffffffffffffffffffffffffffffffffffffff1673ffffffffffffffffffffffffffffffffffffffff1681526020019081526020016000206004016000828254610e1f9190611ab9565b9250508190555050565b60008282610e379190611571565b905092915050565b6000610e4a82610563565b90506000600582610e5b9190611666565b90506611c37937e0800081610e709190611aed565b600160008573ffffffffffffffffffffffffffffffffffffffff1673ffffffffffffffffffffffffffffffffffffffff16815260200190815260200160002060050181905550505050565b6000604051905090565b600080fd5b600080fd5b600073ffffffffffffffffffffffffffffffffffffffff82169050919050565b6000610efa82610ecf565b9050919050565b610f0a81610eef565b8114610f1557600080fd5b50565b600081359050610f2781610f01565b92915050565b600060208284031215610f4357610f42610ec5565b5b6000610f5184828501610f18565b91505092915050565b6000610f6582610ecf565b9050919050565b610f7581610f5a565b8114610f8057600080fd5b50565b600081359050610f9281610f6c565b92915050565b600060208284031215610fae57610fad610ec5565b5b6000610fbc84828501610f83565b91505092915050565b6000819050919050565b610fd881610fc5565b82525050565b6000602082019050610ff36000830184610fcf565b92915050565b600080fd5b600080fd5b6000601f19601f8301169050919050565b7f4e487b7100000000000000000000000000000000000000000000000000000000600052604160045260246000fd5b61104c82611003565b810181811067ffffffffffffffff8211171561106b5761106a611014565b5b80604052505050565b600061107e610ebb565b905061108a8282611043565b919050565b600067ffffffffffffffff8211156110aa576110a9611014565b5b6110b382611003565b9050602081019050919050565b82818337600083830152505050565b60006110e26110dd8461108f565b611074565b9050828152602081018484840111156110fe576110fd610ffe565b5b6111098482856110c0565b509392505050565b600082601f83011261112657611125610ff9565b5b81356111368482602086016110cf565b91505092915050565b60008115159050919050565b6111548161113f565b811461115f57600080fd5b50565b6000813590506111718161114b565b92915050565b61118081610fc5565b811461118b57600080fd5b50565b60008135905061119d81611177565b92915050565b60008060008060008060008060006101208a8c0312156111c6576111c5610ec5565b5b60006111d48c828d01610f83565b99505060208a013567ffffffffffffffff8111156111f5576111f4610eca565b5b6112018c828d01611111565b98505060408a013567ffffffffffffffff81111561122257611221610eca565b5b61122e8c828d01611111565b975050606061123f8c828d01611162565b96505060806112508c828d01611162565b95505060a06112618c828d0161118e565b94505060c06112728c828d0161118e565b93505060e06112838c828d0161118e565b9250506101006112958c828d0161118e565b9150509295985092959850929598565b6112ae81610f5a565b82525050565b600081519050919050565b600082825260208201905092915050565b60005b838110156112ee5780820151818401526020810190506112d3565b60008484015250505050565b6000611305826112b4565b61130f81856112bf565b935061131f8185602086016112d0565b61132881611003565b840191505092915050565b61133c8161113f565b82525050565b600061012082019050611358600083018c6112a5565b818103602083015261136a818b6112fa565b9050818103604083015261137e818a6112fa565b905061138d6060830189611333565b61139a6080830188611333565b6113a760a0830187610fcf565b6113b460c0830186610fcf565b6113c160e0830185610fcf565b6113cf610100830184610fcf565b9a9950505050505050505050565b60006020820190506113f26000830184611333565b92915050565b7f596f7520646f206e6f74206861766520616e797468696e67206475652061742060008201527f746869732074696d652100000000000000000000000000000000000000000000602082015250565b6000611454602a836112bf565b915061145f826113f8565b604082019050919050565b6000602082019050818103600083015261148381611447565b9050919050565b7f596f7520646f206e6f74206861766520656e6f7567682066756e6420746f206360008201527f6f766572207061796d656e742e20506c65617365206d616b652061206465706f60208201527f7369742100000000000000000000000000000000000000000000000000000000604082015250565b600061150c6044836112bf565b91506115178261148a565b606082019050919050565b6000602082019050818103600083015261153b816114ff565b9050919050565b7f4e487b7100000000000000000000000000000000000000000000000000000000600052601160045260246000fd5b600061157c82610fc5565b915061158783610fc5565b925082820390508181111561159f5761159e611542565b5b92915050565b7f546865206361722069732063757272656e746c7920636865636b6564206f757460008201527f2100000000000000000000000000000000000000000000000000000000000000602082015250565b60006116016021836112bf565b915061160c826115a5565b604082019050919050565b60006020820190508181036000830152611630816115f4565b9050919050565b7f4e487b7100000000000000000000000000000000000000000000000000000000600052601260045260246000fd5b600061167182610fc5565b915061167c83610fc5565b92508261168c5761168b611637565b5b828204905092915050565b7f4e487b7100000000000000000000000000000000000000000000000000000000600052602260045260246000fd5b600060028204905060018216806116de57607f821691505b6020821081036116f1576116f0611697565b5b50919050565b60008190508160005260206000209050919050565b60006020601f8301049050919050565b600082821b905092915050565b6000600883026117597fffffffffffffffffffffffffffffffffffffffffffffffffffffffffffffffff8261171c565b611763868361171c565b95508019841693508086168417925050509392505050565b6000819050919050565b60006117a061179b61179684610fc5565b61177b565b610fc5565b9050919050565b6000819050919050565b6117ba83611785565b6117ce6117c6826117a7565b848454611729565b825550505050565b600090565b6117e36117d6565b6117ee8184846117b1565b505050565b5b81811015611812576118076000826117db565b6001810190506117f4565b5050565b601f82111561185757611828816116f7565b6118318461170c565b81016020851015611840578190505b61185461184c8561170c565b8301826117f3565b50505b505050565b600082821c905092915050565b600061187a6000198460080261185c565b1980831691505092915050565b60006118938383611869565b9150826002028217905092915050565b6118ac826112b4565b67ffffffffffffffff8111156118c5576118c4611014565b5b6118cf82546116c6565b6118da828285611816565b600060209050601f83116001811461190d57600084156118fb578287015190505b6119058582611887565b86555061196d565b601f19841661191b866116f7565b60005b828110156119435784890151825560018201915060208501945060208101905061191e565b86831015611960578489015161195c601f891682611869565b8355505b6001600288020188555050505b505050505050565b7f596f75206861766520612070656e64696e672062616c616e6365210000000000600082015250565b60006119ab601b836112bf565b91506119b682611975565b602082019050919050565b600060208201905081810360008301526119da8161199e565b9050919050565b7f43616e27742072656e7420612063617220617420746865206d6f6d656e742100600082015250565b6000611a17601f836112bf565b9150611a22826119e1565b602082019050919050565b60006020820190508181036000830152611a4681611a0a565b9050919050565b7f4b696e646c7920636865636b6f75742074686520636172210000000000000000600082015250565b6000611a836018836112bf565b9150611a8e82611a4d565b602082019050919050565b60006020820190508181036000830152611ab281611a76565b9050919050565b6000611ac482610fc5565b9150611acf83610fc5565b9250828201905080821115611ae757611ae6611542565b5b92915050565b6000611af882610fc5565b9150611b0383610fc5565b9250828202611b1181610fc5565b91508282048414831517611b2857611b27611542565b5b509291505056fea26469706673582212200b7da079f19783d9d8984ab73a5ec74437b5d9b7f80d6329b71dd6fb44ed593e64736f6c634300081c0033",
  "linkReferences": {},
  "deployedLinkReferences": {}
}